{
  "contractName": "Irrigate",
  "abi": [
    {
      "inputs": [
        {
          "internalType": "address",
          "name": "_tokenAddress",
          "type": "address"
        }
      ],
      "stateMutability": "nonpayable",
      "type": "constructor"
    },
    {
      "anonymous": false,
      "inputs": [
        {
          "indexed": false,
          "internalType": "address",
          "name": "dest",
          "type": "address"
        },
        {
          "indexed": false,
          "internalType": "uint256",
          "name": "amount",
          "type": "uint256"
        }
      ],
      "name": "EtherSent",
      "type": "event"
    },
    {
      "anonymous": false,
      "inputs": [
        {
          "indexed": true,
          "internalType": "address",
          "name": "previousOwner",
          "type": "address"
        },
        {
          "indexed": true,
          "internalType": "address",
          "name": "newOwner",
          "type": "address"
        }
      ],
      "name": "OwnershipTransferred",
      "type": "event"
    },
    {
      "anonymous": false,
      "inputs": [
        {
          "indexed": false,
          "internalType": "address",
          "name": "account",
          "type": "address"
        }
      ],
      "name": "Paused",
      "type": "event"
    },
    {
      "anonymous": false,
      "inputs": [
        {
          "indexed": false,
          "internalType": "address",
          "name": "sender",
          "type": "address"
        },
        {
          "indexed": false,
          "internalType": "uint256",
          "name": "amount",
          "type": "uint256"
        }
      ],
      "name": "ReceivedEther",
      "type": "event"
    },
    {
      "anonymous": false,
      "inputs": [
        {
          "indexed": false,
          "internalType": "address",
          "name": "previousToken",
          "type": "address"
        },
        {
          "indexed": false,
          "internalType": "address",
          "name": "newToken",
          "type": "address"
        }
      ],
      "name": "TokenAddressChanged",
      "type": "event"
    },
    {
      "anonymous": false,
      "inputs": [
        {
          "indexed": false,
          "internalType": "address",
          "name": "dest",
          "type": "address"
        },
        {
          "indexed": false,
          "internalType": "uint256",
          "name": "amount",
          "type": "uint256"
        },
        {
          "indexed": false,
          "internalType": "string",
          "name": "donationId",
          "type": "string"
        }
      ],
      "name": "TokenTransfer",
      "type": "event"
    },
    {
      "anonymous": false,
      "inputs": [
        {
          "indexed": false,
          "internalType": "address",
          "name": "account",
          "type": "address"
        }
      ],
      "name": "Unpaused",
      "type": "event"
    },
    {
      "stateMutability": "payable",
      "type": "fallback",
      "payable": true
    },
    {
      "inputs": [],
      "name": "owner",
      "outputs": [
        {
          "internalType": "address",
          "name": "",
          "type": "address"
        }
      ],
      "stateMutability": "view",
      "type": "function",
      "constant": true
    },
    {
      "inputs": [],
      "name": "paused",
      "outputs": [
        {
          "internalType": "bool",
          "name": "",
          "type": "bool"
        }
      ],
      "stateMutability": "view",
      "type": "function",
      "constant": true
    },
    {
      "inputs": [],
      "name": "renounceOwnership",
      "outputs": [],
      "stateMutability": "nonpayable",
      "type": "function"
    },
    {
      "inputs": [],
      "name": "tokenAddress",
      "outputs": [
        {
          "internalType": "address",
          "name": "",
          "type": "address"
        }
      ],
      "stateMutability": "view",
      "type": "function",
      "constant": true
    },
    {
      "inputs": [
        {
          "internalType": "address",
          "name": "newOwner",
          "type": "address"
        }
      ],
      "name": "transferOwnership",
      "outputs": [],
      "stateMutability": "nonpayable",
      "type": "function"
    },
    {
      "stateMutability": "payable",
      "type": "receive",
      "payable": true
    },
    {
      "inputs": [],
      "name": "lockContract",
      "outputs": [],
      "stateMutability": "nonpayable",
      "type": "function"
    },
    {
      "inputs": [],
      "name": "unlockContract",
      "outputs": [],
      "stateMutability": "nonpayable",
      "type": "function"
    },
    {
      "inputs": [
        {
          "internalType": "address payable",
          "name": "dest",
          "type": "address"
        },
        {
          "internalType": "uint256",
          "name": "amountInWei",
          "type": "uint256"
        }
      ],
      "name": "transferEth",
      "outputs": [],
      "stateMutability": "nonpayable",
      "type": "function"
    },
    {
      "inputs": [
        {
          "internalType": "address",
          "name": "newTokenAddress",
          "type": "address"
        }
      ],
      "name": "setTokenAddress",
      "outputs": [],
      "stateMutability": "nonpayable",
      "type": "function"
    },
    {
      "inputs": [
        {
          "internalType": "address",
          "name": "dest",
          "type": "address"
        },
        {
          "internalType": "uint256",
          "name": "amount",
          "type": "uint256"
        },
        {
          "internalType": "string",
          "name": "donationId",
          "type": "string"
        }
      ],
      "name": "transferToken",
      "outputs": [],
      "stateMutability": "nonpayable",
      "type": "function"
    }
  ],
  "bytecode": "0x60806040523480156200001157600080fd5b50604051620019c4380380620019c4833981810160405281019062000037919062000170565b6000620000496200015160201b60201c565b9050806000806101000a81548173ffffffffffffffffffffffffffffffffffffffff021916908373ffffffffffffffffffffffffffffffffffffffff1602179055508073ffffffffffffffffffffffffffffffffffffffff16600073ffffffffffffffffffffffffffffffffffffffff167f8be0079c531659141344cd1fd0a4f28419497f9722a3daafe3b4186f6b6457e060405160405180910390a350600180819055506000600260006101000a81548160ff02191690831515021790555080600260016101000a81548173ffffffffffffffffffffffffffffffffffffffff021916908373ffffffffffffffffffffffffffffffffffffffff16021790555050620001ea565b600033905090565b6000815190506200016a81620001d0565b92915050565b6000602082840312156200018357600080fd5b6000620001938482850162000159565b91505092915050565b6000620001a982620001b0565b9050919050565b600073ffffffffffffffffffffffffffffffffffffffff82169050919050565b620001db816200019c565b8114620001e757600080fd5b50565b6117ca80620001fa6000396000f3fe6080604052600436106100955760003560e01c8063753868e311610059578063753868e3146101cd5780638da5cb5b146101e45780639d76ea581461020f578063e9bb84c21461023a578063f2fde38b146102635761011d565b806310228dc31461012257806322f0f2f91461014b57806326a4e8d2146101625780635c975abb1461018b578063715018a6146101b65761011d565b3661011d576100a261028c565b156100e2576040517f08c379a00000000000000000000000000000000000000000000000000000000081526004016100d990611398565b60405180910390fd5b7fa419615bc8fda4c87663805ee2a3597a6d71c1d476911d9892f340d965bc7bf133346040516101139291906112b6565b60405180910390a1005b600080fd5b34801561012e57600080fd5b5061014960048036038101906101449190610fef565b6102a3565b005b34801561015757600080fd5b506101606105c4565b005b34801561016e57600080fd5b5061018960048036038101906101849190610f8a565b61064a565b005b34801561019757600080fd5b506101a061028c565b6040516101ad919061131d565b60405180910390f35b3480156101c257600080fd5b506101cb6107d4565b005b3480156101d957600080fd5b506101e261090e565b005b3480156101f057600080fd5b506101f9610994565b6040516102069190611212565b60405180910390f35b34801561021b57600080fd5b506102246109bd565b6040516102319190611212565b60405180910390f35b34801561024657600080fd5b50610261600480360381019061025c9190610fb3565b6109e3565b005b34801561026f57600080fd5b5061028a60048036038101906102859190610f8a565b610bc3565b005b6000600260009054906101000a900460ff16905090565b6102ab61028c565b156102eb576040517f08c379a00000000000000000000000000000000000000000000000000000000081526004016102e290611398565b60405180910390fd5b6102f3610d6c565b73ffffffffffffffffffffffffffffffffffffffff16610311610994565b73ffffffffffffffffffffffffffffffffffffffff1614610367576040517f08c379a000000000000000000000000000000000000000000000000000000000815260040161035e906113d8565b60405180910390fd5b600260015414156103ad576040517f08c379a00000000000000000000000000000000000000000000000000000000081526004016103a4906113f8565b60405180910390fd5b60026001819055506000600260019054906101000a900473ffffffffffffffffffffffffffffffffffffffff169050828173ffffffffffffffffffffffffffffffffffffffff166370a08231306040518263ffffffff1660e01b81526004016104169190611212565b60206040518083038186803b15801561042e57600080fd5b505afa158015610442573d6000803e3d6000fd5b505050506040513d601f19601f82011682018060405250810190610466919061107f565b10156104a7576040517f08c379a000000000000000000000000000000000000000000000000000000000815260040161049e90611378565b60405180910390fd5b600115158173ffffffffffffffffffffffffffffffffffffffff166323b872dd3087876040518463ffffffff1660e01b81526004016104e89392919061127f565b602060405180830381600087803b15801561050257600080fd5b505af1158015610516573d6000803e3d6000fd5b505050506040513d601f19601f8201168201806040525081019061053a9190611056565b15151461057c576040517f08c379a0000000000000000000000000000000000000000000000000000000008152600401610573906113b8565b60405180910390fd5b7f819ff3ff82c0ed25e3f5b910657608f50f94b69abc325420cf07ddd9f93562a78484846040516105af939291906112df565b60405180910390a15060018081905550505050565b6105cc610d6c565b73ffffffffffffffffffffffffffffffffffffffff166105ea610994565b73ffffffffffffffffffffffffffffffffffffffff1614610640576040517f08c379a0000000000000000000000000000000000000000000000000000000008152600401610637906113d8565b60405180910390fd5b610648610d74565b565b61065261028c565b610691576040517f08c379a000000000000000000000000000000000000000000000000000000000815260040161068890611338565b60405180910390fd5b610699610d6c565b73ffffffffffffffffffffffffffffffffffffffff166106b7610994565b73ffffffffffffffffffffffffffffffffffffffff161461070d576040517f08c379a0000000000000000000000000000000000000000000000000000000008152600401610704906113d8565b60405180910390fd5b6000600260019054906101000a900473ffffffffffffffffffffffffffffffffffffffff16905081600260016101000a81548173ffffffffffffffffffffffffffffffffffffffff021916908373ffffffffffffffffffffffffffffffffffffffff1602179055507f5527f14e7199c63a0d6caffa1fd8eab9a6e595207bc2b23ae26a028acde7eefa81600260019054906101000a900473ffffffffffffffffffffffffffffffffffffffff166040516107c8929190611256565b60405180910390a15050565b6107dc610d6c565b73ffffffffffffffffffffffffffffffffffffffff166107fa610994565b73ffffffffffffffffffffffffffffffffffffffff1614610850576040517f08c379a0000000000000000000000000000000000000000000000000000000008152600401610847906113d8565b60405180910390fd5b600073ffffffffffffffffffffffffffffffffffffffff1660008054906101000a900473ffffffffffffffffffffffffffffffffffffffff1673ffffffffffffffffffffffffffffffffffffffff167f8be0079c531659141344cd1fd0a4f28419497f9722a3daafe3b4186f6b6457e060405160405180910390a360008060006101000a81548173ffffffffffffffffffffffffffffffffffffffff021916908373ffffffffffffffffffffffffffffffffffffffff160217905550565b610916610d6c565b73ffffffffffffffffffffffffffffffffffffffff16610934610994565b73ffffffffffffffffffffffffffffffffffffffff161461098a576040517f08c379a0000000000000000000000000000000000000000000000000000000008152600401610981906113d8565b60405180910390fd5b610992610e16565b565b60008060009054906101000a900473ffffffffffffffffffffffffffffffffffffffff16905090565b600260019054906101000a900473ffffffffffffffffffffffffffffffffffffffff1681565b6109eb61028c565b15610a2b576040517f08c379a0000000000000000000000000000000000000000000000000000000008152600401610a2290611398565b60405180910390fd5b610a33610d6c565b73ffffffffffffffffffffffffffffffffffffffff16610a51610994565b73ffffffffffffffffffffffffffffffffffffffff1614610aa7576040517f08c379a0000000000000000000000000000000000000000000000000000000008152600401610a9e906113d8565b60405180910390fd5b60026001541415610aed576040517f08c379a0000000000000000000000000000000000000000000000000000000008152600401610ae4906113f8565b60405180910390fd5b600260018190555060004711610b38576040517f08c379a0000000000000000000000000000000000000000000000000000000008152600401610b2f90611378565b60405180910390fd5b8173ffffffffffffffffffffffffffffffffffffffff166108fc829081150290604051600060405180830381858888f19350505050158015610b7e573d6000803e3d6000fd5b507f6109e2559dfa766aaec7118351d48a523f0a4157f49c8d68749c8ac41318ad128282604051610bb092919061122d565b60405180910390a1600180819055505050565b610bcb610d6c565b73ffffffffffffffffffffffffffffffffffffffff16610be9610994565b73ffffffffffffffffffffffffffffffffffffffff1614610c3f576040517f08c379a0000000000000000000000000000000000000000000000000000000008152600401610c36906113d8565b60405180910390fd5b600073ffffffffffffffffffffffffffffffffffffffff168173ffffffffffffffffffffffffffffffffffffffff161415610caf576040517f08c379a0000000000000000000000000000000000000000000000000000000008152600401610ca690611358565b60405180910390fd5b8073ffffffffffffffffffffffffffffffffffffffff1660008054906101000a900473ffffffffffffffffffffffffffffffffffffffff1673ffffffffffffffffffffffffffffffffffffffff167f8be0079c531659141344cd1fd0a4f28419497f9722a3daafe3b4186f6b6457e060405160405180910390a3806000806101000a81548173ffffffffffffffffffffffffffffffffffffffff021916908373ffffffffffffffffffffffffffffffffffffffff16021790555050565b600033905090565b610d7c61028c565b610dbb576040517f08c379a0000000000000000000000000000000000000000000000000000000008152600401610db290611338565b60405180910390fd5b6000600260006101000a81548160ff0219169083151502179055507f5db9ee0a495bf2e6ff9c91a7834c1ba4fdd244a5e8aa4e537bd38aeae4b073aa610dff610d6c565b604051610e0c9190611212565b60405180910390a1565b610e1e61028c565b15610e5e576040517f08c379a0000000000000000000000000000000000000000000000000000000008152600401610e5590611398565b60405180910390fd5b6001600260006101000a81548160ff0219169083151502179055507f62e78cea01bee320cd4e420270b5ea74000d11b0c9f74754ebdbfc544b05a258610ea2610d6c565b604051610eaf9190611212565b60405180910390a1565b6000610ecc610ec78461143d565b611418565b905082815260208101848484011115610ee457600080fd5b610eef84828561151a565b509392505050565b600081359050610f0681611738565b92915050565b600081359050610f1b8161174f565b92915050565b600081519050610f3081611766565b92915050565b600082601f830112610f4757600080fd5b8135610f57848260208601610eb9565b91505092915050565b600081359050610f6f8161177d565b92915050565b600081519050610f848161177d565b92915050565b600060208284031215610f9c57600080fd5b6000610faa84828501610ef7565b91505092915050565b60008060408385031215610fc657600080fd5b6000610fd485828601610f0c565b9250506020610fe585828601610f60565b9150509250929050565b60008060006060848603121561100457600080fd5b600061101286828701610ef7565b935050602061102386828701610f60565b925050604084013567ffffffffffffffff81111561104057600080fd5b61104c86828701610f36565b9150509250925092565b60006020828403121561106857600080fd5b600061107684828501610f21565b91505092915050565b60006020828403121561109157600080fd5b600061109f84828501610f75565b91505092915050565b6110b1816114e4565b82525050565b6110c08161148a565b82525050565b6110cf816114ae565b82525050565b60006110e08261146e565b6110ea8185611479565b93506110fa818560208601611529565b611103816115bc565b840191505092915050565b600061111b601483611479565b9150611126826115cd565b602082019050919050565b600061113e602683611479565b9150611149826115f6565b604082019050919050565b6000611161601483611479565b915061116c82611645565b602082019050919050565b6000611184601083611479565b915061118f8261166e565b602082019050919050565b60006111a7602283611479565b91506111b282611697565b604082019050919050565b60006111ca602083611479565b91506111d5826116e6565b602082019050919050565b60006111ed601f83611479565b91506111f88261170f565b602082019050919050565b61120c816114da565b82525050565b600060208201905061122760008301846110b7565b92915050565b600060408201905061124260008301856110a8565b61124f6020830184611203565b9392505050565b600060408201905061126b60008301856110b7565b61127860208301846110b7565b9392505050565b600060608201905061129460008301866110b7565b6112a160208301856110b7565b6112ae6040830184611203565b949350505050565b60006040820190506112cb60008301856110b7565b6112d86020830184611203565b9392505050565b60006060820190506112f460008301866110b7565b6113016020830185611203565b818103604083015261131381846110d5565b9050949350505050565b600060208201905061133260008301846110c6565b92915050565b600060208201905081810360008301526113518161110e565b9050919050565b6000602082019050818103600083015261137181611131565b9050919050565b6000602082019050818103600083015261139181611154565b9050919050565b600060208201905081810360008301526113b181611177565b9050919050565b600060208201905081810360008301526113d18161119a565b9050919050565b600060208201905081810360008301526113f1816111bd565b9050919050565b60006020820190508181036000830152611411816111e0565b9050919050565b6000611422611433565b905061142e828261155c565b919050565b6000604051905090565b600067ffffffffffffffff8211156114585761145761158d565b5b611461826115bc565b9050602081019050919050565b600081519050919050565b600082825260208201905092915050565b6000611495826114ba565b9050919050565b60006114a7826114ba565b9050919050565b60008115159050919050565b600073ffffffffffffffffffffffffffffffffffffffff82169050919050565b6000819050919050565b60006114ef826114f6565b9050919050565b600061150182611508565b9050919050565b6000611513826114ba565b9050919050565b82818337600083830152505050565b60005b8381101561154757808201518184015260208101905061152c565b83811115611556576000848401525b50505050565b611565826115bc565b810181811067ffffffffffffffff821117156115845761158361158d565b5b80604052505050565b7f4e487b7100000000000000000000000000000000000000000000000000000000600052604160045260246000fd5b6000601f19601f8301169050919050565b7f5061757361626c653a206e6f7420706175736564000000000000000000000000600082015250565b7f4f776e61626c653a206e6577206f776e657220697320746865207a65726f206160008201527f6464726573730000000000000000000000000000000000000000000000000000602082015250565b7f496e73756666696369656e742062616c616e6365000000000000000000000000600082015250565b7f5061757361626c653a2070617573656400000000000000000000000000000000600082015250565b7f436f756c64206e6f742073656e6420746f6b656e7320746f207468652062757960008201527f6572000000000000000000000000000000000000000000000000000000000000602082015250565b7f4f776e61626c653a2063616c6c6572206973206e6f7420746865206f776e6572600082015250565b7f5265656e7472616e637947756172643a207265656e7472616e742063616c6c00600082015250565b6117418161148a565b811461174c57600080fd5b50565b6117588161149c565b811461176357600080fd5b50565b61176f816114ae565b811461177a57600080fd5b50565b611786816114da565b811461179157600080fd5b5056fea2646970667358221220de9512033dce7141d29a331a428e07911453fb929bc87968c88cc0fc4e578b2964736f6c63430008040033",
  "immutableReferences": {},
  "source": "// SPDX-License-Identifier: MIT\r\npragma solidity ^0.8.4;\r\n\r\nimport \"./Ownable.sol\";\r\nimport \"./ReentrancyGuard.sol\";\r\nimport \"./Pausable.sol\";\r\nimport \"./Dai.sol\";\r\n\r\ncontract Irrigate is Ownable, ReentrancyGuard, Pausable {\r\n  address public tokenAddress;\r\n\r\n  event ReceivedEther(address sender, uint amount);\r\n  event EtherSent(address dest, uint amount);\r\n  event TokenAddressChanged(address previousToken, address newToken);\r\n  event TokenTransfer(address dest, uint amount, string donationId);\r\n  \r\n  constructor(address _tokenAddress) {\r\n    tokenAddress = _tokenAddress;\r\n  }\r\n\r\n  receive() external payable whenNotPaused {\r\n    emit ReceivedEther(msg.sender, msg.value);\r\n  }\r\n  \r\n  fallback() external payable {\r\n    revert();\r\n  }\r\n\r\n  function lockContract() public onlyOwner {\r\n    _pause();\r\n  }\r\n\r\n  function unlockContract() public onlyOwner {\r\n    _unpause();\r\n  }\r\n\r\n  function transferEth(address payable dest, uint amountInWei) public whenNotPaused onlyOwner nonReentrant {\r\n    require(address(this).balance > 0, \"Insufficient balance\");\r\n    dest.transfer(amountInWei);\r\n    emit EtherSent(dest, amountInWei);\r\n  }\r\n\r\n  function setTokenAddress(address newTokenAddress) public whenPaused onlyOwner {\r\n    address previousTokenAddress = tokenAddress;\r\n    tokenAddress = newTokenAddress;\r\n    emit TokenAddressChanged(previousTokenAddress, tokenAddress);\r\n  }\r\n\r\n  function transferToken(address dest, uint amount, string memory donationId) public whenNotPaused onlyOwner nonReentrant {\r\n    Dai tokenContract = Dai(tokenAddress);\r\n    require(tokenContract.balanceOf(address(this)) >= amount, \"Insufficient balance\");\r\n    require(tokenContract.transferFrom(address(this), dest, amount) == true, \"Could not send tokens to the buyer\");\r\n    emit TokenTransfer(dest, amount, donationId);\r\n  }\r\n}",
  "sourcePath": "C:/Users/rapha/Documents/IT/irrigate-server-erc20-donation/contracts/Irrigate.sol",
  "compiler": {
    "name": "solc",
    "version": "0.8.4+commit.c7e474f2.Emscripten.clang"
  },
  "schemaVersion": "3.4.0",
  "updatedAt": "2021-05-12T18:14:25.713Z",
  "networkType": "ethereum",
  "devdoc": {
    "kind": "dev",
    "methods": {
      "owner()": {
        "details": "Returns the address of the current owner."
      },
      "paused()": {
        "details": "Returns true if the contract is paused, and false otherwise."
      },
      "renounceOwnership()": {
        "details": "Leaves the contract without owner. It will not be possible to call `onlyOwner` functions anymore. Can only be called by the current owner. NOTE: Renouncing ownership will leave the contract without an owner, thereby removing any functionality that is only available to the owner."
      },
      "transferOwnership(address)": {
        "details": "Transfers ownership of the contract to a new account (`newOwner`). Can only be called by the current owner."
      }
    },
    "version": 1
  },
  "userdoc": {
    "kind": "user",
    "methods": {},
    "version": 1
  }
}