{
  "contractName": "Irrigate",
  "abi": [
    {
      "inputs": [
        {
          "internalType": "address",
          "name": "_tokenAddress",
          "type": "address"
        }
      ],
      "stateMutability": "nonpayable",
      "type": "constructor"
    },
    {
      "anonymous": false,
      "inputs": [
        {
          "indexed": false,
          "internalType": "address",
          "name": "dest",
          "type": "address"
        },
        {
          "indexed": false,
          "internalType": "uint256",
          "name": "amount",
          "type": "uint256"
        }
      ],
      "name": "EtherSent",
      "type": "event"
    },
    {
      "anonymous": false,
      "inputs": [
        {
          "indexed": true,
          "internalType": "address",
          "name": "previousOwner",
          "type": "address"
        },
        {
          "indexed": true,
          "internalType": "address",
          "name": "newOwner",
          "type": "address"
        }
      ],
      "name": "OwnershipTransferred",
      "type": "event"
    },
    {
      "anonymous": false,
      "inputs": [
        {
          "indexed": false,
          "internalType": "address",
          "name": "account",
          "type": "address"
        }
      ],
      "name": "Paused",
      "type": "event"
    },
    {
      "anonymous": false,
      "inputs": [
        {
          "indexed": false,
          "internalType": "address",
          "name": "sender",
          "type": "address"
        },
        {
          "indexed": false,
          "internalType": "uint256",
          "name": "amount",
          "type": "uint256"
        }
      ],
      "name": "ReceivedEther",
      "type": "event"
    },
    {
      "anonymous": false,
      "inputs": [
        {
          "indexed": false,
          "internalType": "address",
          "name": "previousToken",
          "type": "address"
        },
        {
          "indexed": false,
          "internalType": "address",
          "name": "newToken",
          "type": "address"
        }
      ],
      "name": "TokenAddressChanged",
      "type": "event"
    },
    {
      "anonymous": false,
      "inputs": [
        {
          "indexed": false,
          "internalType": "address",
          "name": "dest",
          "type": "address"
        },
        {
          "indexed": false,
          "internalType": "uint256",
          "name": "amount",
          "type": "uint256"
        }
      ],
      "name": "TokenTransfer",
      "type": "event"
    },
    {
      "anonymous": false,
      "inputs": [
        {
          "indexed": false,
          "internalType": "address",
          "name": "account",
          "type": "address"
        }
      ],
      "name": "Unpaused",
      "type": "event"
    },
    {
      "stateMutability": "payable",
      "type": "fallback",
      "payable": true
    },
    {
      "inputs": [],
      "name": "owner",
      "outputs": [
        {
          "internalType": "address",
          "name": "",
          "type": "address"
        }
      ],
      "stateMutability": "view",
      "type": "function",
      "constant": true
    },
    {
      "inputs": [],
      "name": "paused",
      "outputs": [
        {
          "internalType": "bool",
          "name": "",
          "type": "bool"
        }
      ],
      "stateMutability": "view",
      "type": "function",
      "constant": true
    },
    {
      "inputs": [],
      "name": "renounceOwnership",
      "outputs": [],
      "stateMutability": "nonpayable",
      "type": "function"
    },
    {
      "inputs": [],
      "name": "tokenAddress",
      "outputs": [
        {
          "internalType": "address",
          "name": "",
          "type": "address"
        }
      ],
      "stateMutability": "view",
      "type": "function",
      "constant": true
    },
    {
      "inputs": [
        {
          "internalType": "address",
          "name": "newOwner",
          "type": "address"
        }
      ],
      "name": "transferOwnership",
      "outputs": [],
      "stateMutability": "nonpayable",
      "type": "function"
    },
    {
      "stateMutability": "payable",
      "type": "receive",
      "payable": true
    },
    {
      "inputs": [],
      "name": "lockContract",
      "outputs": [],
      "stateMutability": "nonpayable",
      "type": "function"
    },
    {
      "inputs": [],
      "name": "unlockContract",
      "outputs": [],
      "stateMutability": "nonpayable",
      "type": "function"
    },
    {
      "inputs": [
        {
          "internalType": "address payable",
          "name": "dest",
          "type": "address"
        },
        {
          "internalType": "uint256",
          "name": "amountInWei",
          "type": "uint256"
        }
      ],
      "name": "transferEth",
      "outputs": [],
      "stateMutability": "nonpayable",
      "type": "function"
    },
    {
      "inputs": [
        {
          "internalType": "address",
          "name": "newTokenAddress",
          "type": "address"
        }
      ],
      "name": "setTokenAddress",
      "outputs": [],
      "stateMutability": "nonpayable",
      "type": "function"
    },
    {
      "inputs": [
        {
          "internalType": "address",
          "name": "dest",
          "type": "address"
        },
        {
          "internalType": "uint256",
          "name": "amount",
          "type": "uint256"
        }
      ],
      "name": "transferToken",
      "outputs": [],
      "stateMutability": "nonpayable",
      "type": "function"
    }
  ],
  "bytecode": "0x60806040523480156200001157600080fd5b50604051620017a3380380620017a3833981810160405281019062000037919062000170565b6000620000496200015160201b60201c565b9050806000806101000a81548173ffffffffffffffffffffffffffffffffffffffff021916908373ffffffffffffffffffffffffffffffffffffffff1602179055508073ffffffffffffffffffffffffffffffffffffffff16600073ffffffffffffffffffffffffffffffffffffffff167f8be0079c531659141344cd1fd0a4f28419497f9722a3daafe3b4186f6b6457e060405160405180910390a350600180819055506000600260006101000a81548160ff02191690831515021790555080600260016101000a81548173ffffffffffffffffffffffffffffffffffffffff021916908373ffffffffffffffffffffffffffffffffffffffff16021790555050620001ea565b600033905090565b6000815190506200016a81620001d0565b92915050565b6000602082840312156200018357600080fd5b6000620001938482850162000159565b91505092915050565b6000620001a982620001b0565b9050919050565b600073ffffffffffffffffffffffffffffffffffffffff82169050919050565b620001db816200019c565b8114620001e757600080fd5b50565b6115a980620001fa6000396000f3fe6080604052600436106100955760003560e01c8063753868e311610059578063753868e3146101cd5780638da5cb5b146101e45780639d76ea581461020f578063e9bb84c21461023a578063f2fde38b146102635761011d565b80631072cbea1461012257806322f0f2f91461014b57806326a4e8d2146101625780635c975abb1461018b578063715018a6146101b65761011d565b3661011d576100a261028c565b156100e2576040517f08c379a00000000000000000000000000000000000000000000000000000000081526004016100d99061128b565b60405180910390fd5b7fa419615bc8fda4c87663805ee2a3597a6d71c1d476911d9892f340d965bc7bf133346040516101139291906111e7565b60405180910390a1005b600080fd5b34801561012e57600080fd5b5061014960048036038101906101449190610f84565b6102a3565b005b34801561015757600080fd5b506101606105c1565b005b34801561016e57600080fd5b5061018960048036038101906101849190610f1f565b610647565b005b34801561019757600080fd5b506101a061028c565b6040516101ad9190611210565b60405180910390f35b3480156101c257600080fd5b506101cb6107d1565b005b3480156101d957600080fd5b506101e261090b565b005b3480156101f057600080fd5b506101f9610991565b6040516102069190611143565b60405180910390f35b34801561021b57600080fd5b506102246109ba565b6040516102319190611143565b60405180910390f35b34801561024657600080fd5b50610261600480360381019061025c9190610f48565b6109e0565b005b34801561026f57600080fd5b5061028a60048036038101906102859190610f1f565b610bc0565b005b6000600260009054906101000a900460ff16905090565b6102ab61028c565b156102eb576040517f08c379a00000000000000000000000000000000000000000000000000000000081526004016102e29061128b565b60405180910390fd5b6102f3610d69565b73ffffffffffffffffffffffffffffffffffffffff16610311610991565b73ffffffffffffffffffffffffffffffffffffffff1614610367576040517f08c379a000000000000000000000000000000000000000000000000000000000815260040161035e906112cb565b60405180910390fd5b600260015414156103ad576040517f08c379a00000000000000000000000000000000000000000000000000000000081526004016103a4906112eb565b60405180910390fd5b60026001819055506000600260019054906101000a900473ffffffffffffffffffffffffffffffffffffffff169050818173ffffffffffffffffffffffffffffffffffffffff166370a08231306040518263ffffffff1660e01b81526004016104169190611143565b60206040518083038186803b15801561042e57600080fd5b505afa158015610442573d6000803e3d6000fd5b505050506040513d601f19601f820116820180604052508101906104669190610fe9565b10156104a7576040517f08c379a000000000000000000000000000000000000000000000000000000000815260040161049e9061126b565b60405180910390fd5b600115158173ffffffffffffffffffffffffffffffffffffffff166323b872dd3086866040518463ffffffff1660e01b81526004016104e8939291906111b0565b602060405180830381600087803b15801561050257600080fd5b505af1158015610516573d6000803e3d6000fd5b505050506040513d601f19601f8201168201806040525081019061053a9190610fc0565b15151461057c576040517f08c379a0000000000000000000000000000000000000000000000000000000008152600401610573906112ab565b60405180910390fd5b7f1d72140a7ccdb496bef50918d2598dd7edefb514f70e6d4beb528cbd16c80b7d83836040516105ad9291906111e7565b60405180910390a150600180819055505050565b6105c9610d69565b73ffffffffffffffffffffffffffffffffffffffff166105e7610991565b73ffffffffffffffffffffffffffffffffffffffff161461063d576040517f08c379a0000000000000000000000000000000000000000000000000000000008152600401610634906112cb565b60405180910390fd5b610645610d71565b565b61064f61028c565b61068e576040517f08c379a00000000000000000000000000000000000000000000000000000000081526004016106859061122b565b60405180910390fd5b610696610d69565b73ffffffffffffffffffffffffffffffffffffffff166106b4610991565b73ffffffffffffffffffffffffffffffffffffffff161461070a576040517f08c379a0000000000000000000000000000000000000000000000000000000008152600401610701906112cb565b60405180910390fd5b6000600260019054906101000a900473ffffffffffffffffffffffffffffffffffffffff16905081600260016101000a81548173ffffffffffffffffffffffffffffffffffffffff021916908373ffffffffffffffffffffffffffffffffffffffff1602179055507f5527f14e7199c63a0d6caffa1fd8eab9a6e595207bc2b23ae26a028acde7eefa81600260019054906101000a900473ffffffffffffffffffffffffffffffffffffffff166040516107c5929190611187565b60405180910390a15050565b6107d9610d69565b73ffffffffffffffffffffffffffffffffffffffff166107f7610991565b73ffffffffffffffffffffffffffffffffffffffff161461084d576040517f08c379a0000000000000000000000000000000000000000000000000000000008152600401610844906112cb565b60405180910390fd5b600073ffffffffffffffffffffffffffffffffffffffff1660008054906101000a900473ffffffffffffffffffffffffffffffffffffffff1673ffffffffffffffffffffffffffffffffffffffff167f8be0079c531659141344cd1fd0a4f28419497f9722a3daafe3b4186f6b6457e060405160405180910390a360008060006101000a81548173ffffffffffffffffffffffffffffffffffffffff021916908373ffffffffffffffffffffffffffffffffffffffff160217905550565b610913610d69565b73ffffffffffffffffffffffffffffffffffffffff16610931610991565b73ffffffffffffffffffffffffffffffffffffffff1614610987576040517f08c379a000000000000000000000000000000000000000000000000000000000815260040161097e906112cb565b60405180910390fd5b61098f610e13565b565b60008060009054906101000a900473ffffffffffffffffffffffffffffffffffffffff16905090565b600260019054906101000a900473ffffffffffffffffffffffffffffffffffffffff1681565b6109e861028c565b15610a28576040517f08c379a0000000000000000000000000000000000000000000000000000000008152600401610a1f9061128b565b60405180910390fd5b610a30610d69565b73ffffffffffffffffffffffffffffffffffffffff16610a4e610991565b73ffffffffffffffffffffffffffffffffffffffff1614610aa4576040517f08c379a0000000000000000000000000000000000000000000000000000000008152600401610a9b906112cb565b60405180910390fd5b60026001541415610aea576040517f08c379a0000000000000000000000000000000000000000000000000000000008152600401610ae1906112eb565b60405180910390fd5b600260018190555060004711610b35576040517f08c379a0000000000000000000000000000000000000000000000000000000008152600401610b2c9061126b565b60405180910390fd5b8173ffffffffffffffffffffffffffffffffffffffff166108fc829081150290604051600060405180830381858888f19350505050158015610b7b573d6000803e3d6000fd5b507f6109e2559dfa766aaec7118351d48a523f0a4157f49c8d68749c8ac41318ad128282604051610bad92919061115e565b60405180910390a1600180819055505050565b610bc8610d69565b73ffffffffffffffffffffffffffffffffffffffff16610be6610991565b73ffffffffffffffffffffffffffffffffffffffff1614610c3c576040517f08c379a0000000000000000000000000000000000000000000000000000000008152600401610c33906112cb565b60405180910390fd5b600073ffffffffffffffffffffffffffffffffffffffff168173ffffffffffffffffffffffffffffffffffffffff161415610cac576040517f08c379a0000000000000000000000000000000000000000000000000000000008152600401610ca39061124b565b60405180910390fd5b8073ffffffffffffffffffffffffffffffffffffffff1660008054906101000a900473ffffffffffffffffffffffffffffffffffffffff1673ffffffffffffffffffffffffffffffffffffffff167f8be0079c531659141344cd1fd0a4f28419497f9722a3daafe3b4186f6b6457e060405160405180910390a3806000806101000a81548173ffffffffffffffffffffffffffffffffffffffff021916908373ffffffffffffffffffffffffffffffffffffffff16021790555050565b600033905090565b610d7961028c565b610db8576040517f08c379a0000000000000000000000000000000000000000000000000000000008152600401610daf9061122b565b60405180910390fd5b6000600260006101000a81548160ff0219169083151502179055507f5db9ee0a495bf2e6ff9c91a7834c1ba4fdd244a5e8aa4e537bd38aeae4b073aa610dfc610d69565b604051610e099190611143565b60405180910390a1565b610e1b61028c565b15610e5b576040517f08c379a0000000000000000000000000000000000000000000000000000000008152600401610e529061128b565b60405180910390fd5b6001600260006101000a81548160ff0219169083151502179055507f62e78cea01bee320cd4e420270b5ea74000d11b0c9f74754ebdbfc544b05a258610e9f610d69565b604051610eac9190611143565b60405180910390a1565b600081359050610ec581611517565b92915050565b600081359050610eda8161152e565b92915050565b600081519050610eef81611545565b92915050565b600081359050610f048161155c565b92915050565b600081519050610f198161155c565b92915050565b600060208284031215610f3157600080fd5b6000610f3f84828501610eb6565b91505092915050565b60008060408385031215610f5b57600080fd5b6000610f6985828601610ecb565b9250506020610f7a85828601610ef5565b9150509250929050565b60008060408385031215610f9757600080fd5b6000610fa585828601610eb6565b9250506020610fb685828601610ef5565b9150509250929050565b600060208284031215610fd257600080fd5b6000610fe084828501610ee0565b91505092915050565b600060208284031215610ffb57600080fd5b600061100984828501610f0a565b91505092915050565b61101b81611376565b82525050565b61102a8161131c565b82525050565b61103981611340565b82525050565b600061104c60148361130b565b9150611057826113ac565b602082019050919050565b600061106f60268361130b565b915061107a826113d5565b604082019050919050565b600061109260148361130b565b915061109d82611424565b602082019050919050565b60006110b560108361130b565b91506110c08261144d565b602082019050919050565b60006110d860228361130b565b91506110e382611476565b604082019050919050565b60006110fb60208361130b565b9150611106826114c5565b602082019050919050565b600061111e601f8361130b565b9150611129826114ee565b602082019050919050565b61113d8161136c565b82525050565b60006020820190506111586000830184611021565b92915050565b60006040820190506111736000830185611012565b6111806020830184611134565b9392505050565b600060408201905061119c6000830185611021565b6111a96020830184611021565b9392505050565b60006060820190506111c56000830186611021565b6111d26020830185611021565b6111df6040830184611134565b949350505050565b60006040820190506111fc6000830185611021565b6112096020830184611134565b9392505050565b60006020820190506112256000830184611030565b92915050565b600060208201905081810360008301526112448161103f565b9050919050565b6000602082019050818103600083015261126481611062565b9050919050565b6000602082019050818103600083015261128481611085565b9050919050565b600060208201905081810360008301526112a4816110a8565b9050919050565b600060208201905081810360008301526112c4816110cb565b9050919050565b600060208201905081810360008301526112e4816110ee565b9050919050565b6000602082019050818103600083015261130481611111565b9050919050565b600082825260208201905092915050565b60006113278261134c565b9050919050565b60006113398261134c565b9050919050565b60008115159050919050565b600073ffffffffffffffffffffffffffffffffffffffff82169050919050565b6000819050919050565b600061138182611388565b9050919050565b60006113938261139a565b9050919050565b60006113a58261134c565b9050919050565b7f5061757361626c653a206e6f7420706175736564000000000000000000000000600082015250565b7f4f776e61626c653a206e6577206f776e657220697320746865207a65726f206160008201527f6464726573730000000000000000000000000000000000000000000000000000602082015250565b7f496e73756666696369656e742062616c616e6365000000000000000000000000600082015250565b7f5061757361626c653a2070617573656400000000000000000000000000000000600082015250565b7f436f756c64206e6f742073656e6420746f6b656e7320746f207468652062757960008201527f6572000000000000000000000000000000000000000000000000000000000000602082015250565b7f4f776e61626c653a2063616c6c6572206973206e6f7420746865206f776e6572600082015250565b7f5265656e7472616e637947756172643a207265656e7472616e742063616c6c00600082015250565b6115208161131c565b811461152b57600080fd5b50565b6115378161132e565b811461154257600080fd5b50565b61154e81611340565b811461155957600080fd5b50565b6115658161136c565b811461157057600080fd5b5056fea264697066735822122088be7ae439355c5cac23cc7b7d214672fbbdacf37aa1a14e833a5b09c44ed43b64736f6c63430008040033",
  "immutableReferences": {},
  "source": "// SPDX-License-Identifier: MIT\r\npragma solidity ^0.8.4;\r\n\r\nimport \"./Ownable.sol\";\r\nimport \"./ReentrancyGuard.sol\";\r\nimport \"./Pausable.sol\";\r\nimport \"./Dai.sol\";\r\n\r\ncontract Irrigate is Ownable, ReentrancyGuard, Pausable {\r\n  address public tokenAddress;\r\n\r\n  event ReceivedEther(address sender, uint amount);\r\n  event EtherSent(address dest, uint amount);\r\n  event TokenAddressChanged(address previousToken, address newToken);\r\n  event TokenTransfer(address dest, uint amount);\r\n  \r\n  constructor(address _tokenAddress) {\r\n    tokenAddress = _tokenAddress;\r\n  }\r\n\r\n  receive() external payable whenNotPaused {\r\n    emit ReceivedEther(msg.sender, msg.value);\r\n  }\r\n  \r\n  fallback() external payable {\r\n    revert();\r\n  }\r\n\r\n  function lockContract() public onlyOwner {\r\n    _pause();\r\n  }\r\n\r\n  function unlockContract() public onlyOwner {\r\n    _unpause();\r\n  }\r\n\r\n  function transferEth(address payable dest, uint amountInWei) public whenNotPaused onlyOwner nonReentrant {\r\n    require(address(this).balance > 0, \"Insufficient balance\");\r\n    dest.transfer(amountInWei);\r\n    emit EtherSent(dest, amountInWei);\r\n  }\r\n\r\n  function setTokenAddress(address newTokenAddress) public whenPaused onlyOwner {\r\n    address previousTokenAddress = tokenAddress;\r\n    tokenAddress = newTokenAddress;\r\n    emit TokenAddressChanged(previousTokenAddress, tokenAddress);\r\n  }\r\n\r\n  function transferToken(address dest, uint amount) public whenNotPaused onlyOwner nonReentrant {\r\n    Dai tokenContract = Dai(tokenAddress);\r\n    require(tokenContract.balanceOf(address(this)) >= amount, \"Insufficient balance\");\r\n    require(tokenContract.transferFrom(address(this), dest, amount) == true, \"Could not send tokens to the buyer\");\r\n    emit TokenTransfer(dest, amount);\r\n  }\r\n}",
  "sourcePath": "C:/Users/rapha/Documents/IT/irrigate-server-erc20-donation/contracts/Irrigate.sol",
  "compiler": {
    "name": "solc",
    "version": "0.8.4+commit.c7e474f2.Emscripten.clang"
  },
  "schemaVersion": "3.4.0",
  "updatedAt": "2021-05-10T19:12:50.654Z",
  "networkType": "ethereum",
  "devdoc": {
    "kind": "dev",
    "methods": {
      "owner()": {
        "details": "Returns the address of the current owner."
      },
      "paused()": {
        "details": "Returns true if the contract is paused, and false otherwise."
      },
      "renounceOwnership()": {
        "details": "Leaves the contract without owner. It will not be possible to call `onlyOwner` functions anymore. Can only be called by the current owner. NOTE: Renouncing ownership will leave the contract without an owner, thereby removing any functionality that is only available to the owner."
      },
      "transferOwnership(address)": {
        "details": "Transfers ownership of the contract to a new account (`newOwner`). Can only be called by the current owner."
      }
    },
    "version": 1
  },
  "userdoc": {
    "kind": "user",
    "methods": {},
    "version": 1
  }
}