{
  "contractName": "Irrigate",
  "abi": [
    {
      "inputs": [
        {
          "internalType": "address",
          "name": "_tokenAddress",
          "type": "address"
        }
      ],
      "stateMutability": "nonpayable",
      "type": "constructor"
    },
    {
      "anonymous": false,
      "inputs": [
        {
          "indexed": true,
          "internalType": "address",
          "name": "dest",
          "type": "address"
        },
        {
          "indexed": true,
          "internalType": "uint256",
          "name": "amount",
          "type": "uint256"
        }
      ],
      "name": "EtherSent",
      "type": "event"
    },
    {
      "anonymous": false,
      "inputs": [
        {
          "indexed": true,
          "internalType": "address",
          "name": "previousOwner",
          "type": "address"
        },
        {
          "indexed": true,
          "internalType": "address",
          "name": "newOwner",
          "type": "address"
        }
      ],
      "name": "OwnershipTransferred",
      "type": "event"
    },
    {
      "anonymous": false,
      "inputs": [
        {
          "indexed": false,
          "internalType": "address",
          "name": "account",
          "type": "address"
        }
      ],
      "name": "Paused",
      "type": "event"
    },
    {
      "anonymous": false,
      "inputs": [
        {
          "indexed": true,
          "internalType": "address",
          "name": "sender",
          "type": "address"
        },
        {
          "indexed": true,
          "internalType": "uint256",
          "name": "amount",
          "type": "uint256"
        }
      ],
      "name": "ReceivedEther",
      "type": "event"
    },
    {
      "anonymous": false,
      "inputs": [
        {
          "indexed": true,
          "internalType": "address",
          "name": "previousToken",
          "type": "address"
        },
        {
          "indexed": true,
          "internalType": "address",
          "name": "newToken",
          "type": "address"
        }
      ],
      "name": "TokenAddressChanged",
      "type": "event"
    },
    {
      "anonymous": false,
      "inputs": [
        {
          "indexed": true,
          "internalType": "address",
          "name": "dest",
          "type": "address"
        },
        {
          "indexed": true,
          "internalType": "uint256",
          "name": "amount",
          "type": "uint256"
        },
        {
          "indexed": true,
          "internalType": "uint256",
          "name": "donationId",
          "type": "uint256"
        }
      ],
      "name": "TokenTransfer",
      "type": "event"
    },
    {
      "anonymous": false,
      "inputs": [
        {
          "indexed": false,
          "internalType": "address",
          "name": "account",
          "type": "address"
        }
      ],
      "name": "Unpaused",
      "type": "event"
    },
    {
      "stateMutability": "payable",
      "type": "fallback"
    },
    {
      "inputs": [],
      "name": "owner",
      "outputs": [
        {
          "internalType": "address",
          "name": "",
          "type": "address"
        }
      ],
      "stateMutability": "view",
      "type": "function"
    },
    {
      "inputs": [],
      "name": "paused",
      "outputs": [
        {
          "internalType": "bool",
          "name": "",
          "type": "bool"
        }
      ],
      "stateMutability": "view",
      "type": "function"
    },
    {
      "inputs": [],
      "name": "renounceOwnership",
      "outputs": [],
      "stateMutability": "nonpayable",
      "type": "function"
    },
    {
      "inputs": [],
      "name": "tokenAddress",
      "outputs": [
        {
          "internalType": "address",
          "name": "",
          "type": "address"
        }
      ],
      "stateMutability": "view",
      "type": "function"
    },
    {
      "inputs": [
        {
          "internalType": "address",
          "name": "newOwner",
          "type": "address"
        }
      ],
      "name": "transferOwnership",
      "outputs": [],
      "stateMutability": "nonpayable",
      "type": "function"
    },
    {
      "stateMutability": "payable",
      "type": "receive"
    },
    {
      "inputs": [],
      "name": "lockContract",
      "outputs": [],
      "stateMutability": "nonpayable",
      "type": "function"
    },
    {
      "inputs": [],
      "name": "unlockContract",
      "outputs": [],
      "stateMutability": "nonpayable",
      "type": "function"
    },
    {
      "inputs": [
        {
          "internalType": "address payable",
          "name": "dest",
          "type": "address"
        },
        {
          "internalType": "uint256",
          "name": "amountInWei",
          "type": "uint256"
        }
      ],
      "name": "transferEth",
      "outputs": [],
      "stateMutability": "nonpayable",
      "type": "function"
    },
    {
      "inputs": [
        {
          "internalType": "address",
          "name": "newTokenAddress",
          "type": "address"
        }
      ],
      "name": "setTokenAddress",
      "outputs": [],
      "stateMutability": "nonpayable",
      "type": "function"
    },
    {
      "inputs": [
        {
          "internalType": "address",
          "name": "dest",
          "type": "address"
        },
        {
          "internalType": "uint256",
          "name": "amount",
          "type": "uint256"
        },
        {
          "internalType": "uint256",
          "name": "donationId",
          "type": "uint256"
        }
      ],
      "name": "transferToken",
      "outputs": [],
      "stateMutability": "nonpayable",
      "type": "function"
    }
  ],
  "bytecode": "0x60806040523480156200001157600080fd5b506040516200173a3803806200173a833981810160405281019062000037919062000170565b6000620000496200015160201b60201c565b9050806000806101000a81548173ffffffffffffffffffffffffffffffffffffffff021916908373ffffffffffffffffffffffffffffffffffffffff1602179055508073ffffffffffffffffffffffffffffffffffffffff16600073ffffffffffffffffffffffffffffffffffffffff167f8be0079c531659141344cd1fd0a4f28419497f9722a3daafe3b4186f6b6457e060405160405180910390a350600180819055506000600260006101000a81548160ff02191690831515021790555080600260016101000a81548173ffffffffffffffffffffffffffffffffffffffff021916908373ffffffffffffffffffffffffffffffffffffffff16021790555050620001ea565b600033905090565b6000815190506200016a81620001d0565b92915050565b6000602082840312156200018357600080fd5b6000620001938482850162000159565b91505092915050565b6000620001a982620001b0565b9050919050565b600073ffffffffffffffffffffffffffffffffffffffff82169050919050565b620001db816200019c565b8114620001e757600080fd5b50565b61154080620001fa6000396000f3fe6080604052600436106100955760003560e01c8063753868e311610059578063753868e3146101d85780638da5cb5b146101ef5780639d76ea581461021a578063e9bb84c214610245578063f2fde38b1461026e57610128565b806322f0f2f91461012d57806326a4e8d2146101445780632e1faf751461016d5780635c975abb14610196578063715018a6146101c157610128565b36610128576100a2610297565b156100e2576040517f08c379a00000000000000000000000000000000000000000000000000000000081526004016100d990611258565b60405180910390fd5b343373ffffffffffffffffffffffffffffffffffffffff167fa419615bc8fda4c87663805ee2a3597a6d71c1d476911d9892f340d965bc7bf160405160405180910390a3005b600080fd5b34801561013957600080fd5b506101426102ae565b005b34801561015057600080fd5b5061016b60048036038101906101669190610f63565b610334565b005b34801561017957600080fd5b50610194600480360381019061018f9190610fc8565b6104df565b005b3480156101a257600080fd5b506101ab610297565b6040516101b891906111dd565b60405180910390f35b3480156101cd57600080fd5b506101d661080a565b005b3480156101e457600080fd5b506101ed610944565b005b3480156101fb57600080fd5b506102046109ca565b604051610211919061118b565b60405180910390f35b34801561022657600080fd5b5061022f6109f3565b60405161023c919061118b565b60405180910390f35b34801561025157600080fd5b5061026c60048036038101906102679190610f8c565b610a19565b005b34801561027a57600080fd5b5061029560048036038101906102909190610f63565b610c04565b005b6000600260009054906101000a900460ff16905090565b6102b6610dad565b73ffffffffffffffffffffffffffffffffffffffff166102d46109ca565b73ffffffffffffffffffffffffffffffffffffffff161461032a576040517f08c379a000000000000000000000000000000000000000000000000000000000815260040161032190611298565b60405180910390fd5b610332610db5565b565b61033c610297565b61037b576040517f08c379a0000000000000000000000000000000000000000000000000000000008152600401610372906111f8565b60405180910390fd5b610383610dad565b73ffffffffffffffffffffffffffffffffffffffff166103a16109ca565b73ffffffffffffffffffffffffffffffffffffffff16146103f7576040517f08c379a00000000000000000000000000000000000000000000000000000000081526004016103ee90611298565b60405180910390fd5b6000600260019054906101000a900473ffffffffffffffffffffffffffffffffffffffff16905081600260016101000a81548173ffffffffffffffffffffffffffffffffffffffff021916908373ffffffffffffffffffffffffffffffffffffffff160217905550600260019054906101000a900473ffffffffffffffffffffffffffffffffffffffff1673ffffffffffffffffffffffffffffffffffffffff168173ffffffffffffffffffffffffffffffffffffffff167f5527f14e7199c63a0d6caffa1fd8eab9a6e595207bc2b23ae26a028acde7eefa60405160405180910390a35050565b6104e7610297565b15610527576040517f08c379a000000000000000000000000000000000000000000000000000000000815260040161051e90611258565b60405180910390fd5b61052f610dad565b73ffffffffffffffffffffffffffffffffffffffff1661054d6109ca565b73ffffffffffffffffffffffffffffffffffffffff16146105a3576040517f08c379a000000000000000000000000000000000000000000000000000000000815260040161059a90611298565b60405180910390fd5b600260015414156105e9576040517f08c379a00000000000000000000000000000000000000000000000000000000081526004016105e0906112b8565b60405180910390fd5b60026001819055506000600260019054906101000a900473ffffffffffffffffffffffffffffffffffffffff169050828173ffffffffffffffffffffffffffffffffffffffff166370a08231306040518263ffffffff1660e01b8152600401610652919061118b565b60206040518083038186803b15801561066a57600080fd5b505afa15801561067e573d6000803e3d6000fd5b505050506040513d601f19601f820116820180604052508101906106a29190611040565b10156106e3576040517f08c379a00000000000000000000000000000000000000000000000000000000081526004016106da90611238565b60405180910390fd5b600115158173ffffffffffffffffffffffffffffffffffffffff166323b872dd3087876040518463ffffffff1660e01b8152600401610724939291906111a6565b602060405180830381600087803b15801561073e57600080fd5b505af1158015610752573d6000803e3d6000fd5b505050506040513d601f19601f820116820180604052508101906107769190611017565b1515146107b8576040517f08c379a00000000000000000000000000000000000000000000000000000000081526004016107af90611278565b60405180910390fd5b81838573ffffffffffffffffffffffffffffffffffffffff167f9087e92f42cb23d10212b5222d537c8cd504e6f990bcdbf8614859f370b3cbfc60405160405180910390a45060018081905550505050565b610812610dad565b73ffffffffffffffffffffffffffffffffffffffff166108306109ca565b73ffffffffffffffffffffffffffffffffffffffff1614610886576040517f08c379a000000000000000000000000000000000000000000000000000000000815260040161087d90611298565b60405180910390fd5b600073ffffffffffffffffffffffffffffffffffffffff1660008054906101000a900473ffffffffffffffffffffffffffffffffffffffff1673ffffffffffffffffffffffffffffffffffffffff167f8be0079c531659141344cd1fd0a4f28419497f9722a3daafe3b4186f6b6457e060405160405180910390a360008060006101000a81548173ffffffffffffffffffffffffffffffffffffffff021916908373ffffffffffffffffffffffffffffffffffffffff160217905550565b61094c610dad565b73ffffffffffffffffffffffffffffffffffffffff1661096a6109ca565b73ffffffffffffffffffffffffffffffffffffffff16146109c0576040517f08c379a00000000000000000000000000000000000000000000000000000000081526004016109b790611298565b60405180910390fd5b6109c8610e57565b565b60008060009054906101000a900473ffffffffffffffffffffffffffffffffffffffff16905090565b600260019054906101000a900473ffffffffffffffffffffffffffffffffffffffff1681565b610a21610297565b15610a61576040517f08c379a0000000000000000000000000000000000000000000000000000000008152600401610a5890611258565b60405180910390fd5b610a69610dad565b73ffffffffffffffffffffffffffffffffffffffff16610a876109ca565b73ffffffffffffffffffffffffffffffffffffffff1614610add576040517f08c379a0000000000000000000000000000000000000000000000000000000008152600401610ad490611298565b60405180910390fd5b60026001541415610b23576040517f08c379a0000000000000000000000000000000000000000000000000000000008152600401610b1a906112b8565b60405180910390fd5b600260018190555060004711610b6e576040517f08c379a0000000000000000000000000000000000000000000000000000000008152600401610b6590611238565b60405180910390fd5b8173ffffffffffffffffffffffffffffffffffffffff166108fc829081150290604051600060405180830381858888f19350505050158015610bb4573d6000803e3d6000fd5b50808273ffffffffffffffffffffffffffffffffffffffff167f6109e2559dfa766aaec7118351d48a523f0a4157f49c8d68749c8ac41318ad1260405160405180910390a3600180819055505050565b610c0c610dad565b73ffffffffffffffffffffffffffffffffffffffff16610c2a6109ca565b73ffffffffffffffffffffffffffffffffffffffff1614610c80576040517f08c379a0000000000000000000000000000000000000000000000000000000008152600401610c7790611298565b60405180910390fd5b600073ffffffffffffffffffffffffffffffffffffffff168173ffffffffffffffffffffffffffffffffffffffff161415610cf0576040517f08c379a0000000000000000000000000000000000000000000000000000000008152600401610ce790611218565b60405180910390fd5b8073ffffffffffffffffffffffffffffffffffffffff1660008054906101000a900473ffffffffffffffffffffffffffffffffffffffff1673ffffffffffffffffffffffffffffffffffffffff167f8be0079c531659141344cd1fd0a4f28419497f9722a3daafe3b4186f6b6457e060405160405180910390a3806000806101000a81548173ffffffffffffffffffffffffffffffffffffffff021916908373ffffffffffffffffffffffffffffffffffffffff16021790555050565b600033905090565b610dbd610297565b610dfc576040517f08c379a0000000000000000000000000000000000000000000000000000000008152600401610df3906111f8565b60405180910390fd5b6000600260006101000a81548160ff0219169083151502179055507f5db9ee0a495bf2e6ff9c91a7834c1ba4fdd244a5e8aa4e537bd38aeae4b073aa610e40610dad565b604051610e4d919061118b565b60405180910390a1565b610e5f610297565b15610e9f576040517f08c379a0000000000000000000000000000000000000000000000000000000008152600401610e9690611258565b60405180910390fd5b6001600260006101000a81548160ff0219169083151502179055507f62e78cea01bee320cd4e420270b5ea74000d11b0c9f74754ebdbfc544b05a258610ee3610dad565b604051610ef0919061118b565b60405180910390a1565b600081359050610f09816114ae565b92915050565b600081359050610f1e816114c5565b92915050565b600081519050610f33816114dc565b92915050565b600081359050610f48816114f3565b92915050565b600081519050610f5d816114f3565b92915050565b600060208284031215610f7557600080fd5b6000610f8384828501610efa565b91505092915050565b60008060408385031215610f9f57600080fd5b6000610fad85828601610f0f565b9250506020610fbe85828601610f39565b9150509250929050565b600080600060608486031215610fdd57600080fd5b6000610feb86828701610efa565b9350506020610ffc86828701610f39565b925050604061100d86828701610f39565b9150509250925092565b60006020828403121561102957600080fd5b600061103784828501610f24565b91505092915050565b60006020828403121561105257600080fd5b600061106084828501610f4e565b91505092915050565b611072816112e9565b82525050565b6110818161130d565b82525050565b60006110946014836112d8565b915061109f82611343565b602082019050919050565b60006110b76026836112d8565b91506110c28261136c565b604082019050919050565b60006110da6014836112d8565b91506110e5826113bb565b602082019050919050565b60006110fd6010836112d8565b9150611108826113e4565b602082019050919050565b60006111206022836112d8565b915061112b8261140d565b604082019050919050565b60006111436020836112d8565b915061114e8261145c565b602082019050919050565b6000611166601f836112d8565b915061117182611485565b602082019050919050565b61118581611339565b82525050565b60006020820190506111a06000830184611069565b92915050565b60006060820190506111bb6000830186611069565b6111c86020830185611069565b6111d5604083018461117c565b949350505050565b60006020820190506111f26000830184611078565b92915050565b6000602082019050818103600083015261121181611087565b9050919050565b60006020820190508181036000830152611231816110aa565b9050919050565b60006020820190508181036000830152611251816110cd565b9050919050565b60006020820190508181036000830152611271816110f0565b9050919050565b6000602082019050818103600083015261129181611113565b9050919050565b600060208201905081810360008301526112b181611136565b9050919050565b600060208201905081810360008301526112d181611159565b9050919050565b600082825260208201905092915050565b60006112f482611319565b9050919050565b600061130682611319565b9050919050565b60008115159050919050565b600073ffffffffffffffffffffffffffffffffffffffff82169050919050565b6000819050919050565b7f5061757361626c653a206e6f7420706175736564000000000000000000000000600082015250565b7f4f776e61626c653a206e6577206f776e657220697320746865207a65726f206160008201527f6464726573730000000000000000000000000000000000000000000000000000602082015250565b7f496e73756666696369656e742062616c616e6365000000000000000000000000600082015250565b7f5061757361626c653a2070617573656400000000000000000000000000000000600082015250565b7f436f756c64206e6f742073656e6420746f6b656e7320746f207468652062757960008201527f6572000000000000000000000000000000000000000000000000000000000000602082015250565b7f4f776e61626c653a2063616c6c6572206973206e6f7420746865206f776e6572600082015250565b7f5265656e7472616e637947756172643a207265656e7472616e742063616c6c00600082015250565b6114b7816112e9565b81146114c257600080fd5b50565b6114ce816112fb565b81146114d957600080fd5b50565b6114e58161130d565b81146114f057600080fd5b50565b6114fc81611339565b811461150757600080fd5b5056fea2646970667358221220ac479ba7ede6d98de66fbe78f95c2aae03c9610466960e7eb2668062c047832a64736f6c63430008040033",
  "immutableReferences": {},
  "source": "// SPDX-License-Identifier: MIT\r\npragma solidity ^0.8.4;\r\n\r\nimport \"./Ownable.sol\";\r\nimport \"./ReentrancyGuard.sol\";\r\nimport \"./Pausable.sol\";\r\nimport \"./Dai.sol\";\r\n\r\ncontract Irrigate is Ownable, ReentrancyGuard, Pausable {\r\n  address public tokenAddress;\r\n\r\n  event ReceivedEther(address indexed sender, uint indexed amount);\r\n  event EtherSent(address indexed dest, uint indexed amount);\r\n  event TokenAddressChanged(address indexed previousToken, address indexed newToken);\r\n  event TokenTransfer(address indexed dest, uint indexed amount, uint indexed donationId);\r\n  \r\n  constructor(address _tokenAddress) {\r\n    tokenAddress = _tokenAddress;\r\n  }\r\n\r\n  receive() external payable whenNotPaused {\r\n    emit ReceivedEther(msg.sender, msg.value);\r\n  }\r\n  \r\n  fallback() external payable {\r\n    revert();\r\n  }\r\n\r\n  function lockContract() public onlyOwner {\r\n    _pause();\r\n  }\r\n\r\n  function unlockContract() public onlyOwner {\r\n    _unpause();\r\n  }\r\n\r\n  function transferEth(address payable dest, uint amountInWei) public whenNotPaused onlyOwner nonReentrant {\r\n    require(address(this).balance > 0, \"Insufficient balance\");\r\n    dest.transfer(amountInWei);\r\n    emit EtherSent(dest, amountInWei);\r\n  }\r\n\r\n  function setTokenAddress(address newTokenAddress) public whenPaused onlyOwner {\r\n    address previousTokenAddress = tokenAddress;\r\n    tokenAddress = newTokenAddress;\r\n    emit TokenAddressChanged(previousTokenAddress, tokenAddress);\r\n  }\r\n\r\n  function transferToken(address dest, uint amount, uint donationId) public whenNotPaused onlyOwner nonReentrant {\r\n    Dai tokenContract = Dai(tokenAddress);\r\n    require(tokenContract.balanceOf(address(this)) >= amount, \"Insufficient balance\");\r\n    require(tokenContract.transferFrom(address(this), dest, amount) == true, \"Could not send tokens to the buyer\");\r\n    emit TokenTransfer(dest, amount, donationId);\r\n  }\r\n}",
  "sourcePath": "C:/Users/rapha/Documents/IT/irrigate-server-erc20-donation/contracts/Irrigate.sol",
  "compiler": {
    "name": "solc",
    "version": "0.8.4+commit.c7e474f2.Emscripten.clang"
  },
  "schemaVersion": "3.4.0",
  "updatedAt": "2021-05-28T09:42:30.314Z",
  "devdoc": {
    "kind": "dev",
    "methods": {
      "owner()": {
        "details": "Returns the address of the current owner."
      },
      "paused()": {
        "details": "Returns true if the contract is paused, and false otherwise."
      },
      "renounceOwnership()": {
        "details": "Leaves the contract without owner. It will not be possible to call `onlyOwner` functions anymore. Can only be called by the current owner. NOTE: Renouncing ownership will leave the contract without an owner, thereby removing any functionality that is only available to the owner."
      },
      "transferOwnership(address)": {
        "details": "Transfers ownership of the contract to a new account (`newOwner`). Can only be called by the current owner."
      }
    },
    "version": 1
  },
  "userdoc": {
    "kind": "user",
    "methods": {},
    "version": 1
  }
}